:020000040000FA
:0400000058EF00F0C5
:100008005A82FACF01F0FBCF02F0D9CF03F0DACF52
:1000180004F0F2AC12EF00F014EF00F04EEF00F035
:100028009DA819EF00F01BEF00F031EF00F09EA83B
:1000380020EF00F022EF00F031EF00F002D82FEFB0
:1000480000F00500FA6E0001E551FD6EE651FE6E06
:10005800FF6AFA5012004EEF00F09DAA36EF00F04A
:1000680038EF00F04EEF00F09EAA3DEF00F03FEFB2
:1000780000F04EEF00F002D84CEF00F00500FA6EE9
:100088000001E351FD6EE451FE6EFF6AFA50120062
:100098004EEF00F004C0DAFF03C0D9FF02C0FBFF37
:0C00A80001C0FAFF5A921100D6EF11F0CF
:10100000009E24762466244A19CA1A92241A1D289E
:101010002520251825102508250025F82486246478
:0B1020001F2564B0430D0A002D0000E6
:10102C0024C03CF025C03DF026C03EF027C03FF068
:10103C0028C040F029C041F02AC042F02BC043F038
:10104C0043BE2BEF08F02EEF08F0010E2FEF08F047
:10105C00000E3A6E3B6A3A503B10D8B438EF08F0A9
:10106C003AEF08F04AEF08F0431E421E411E401EA4
:10107C003F1E3E1E3D1E3C6C000E3D223E223F227A
:10108C0040224122422243220001A1BF50EF08F02E
:10109C0052EF08F053EF08F0A293A1BF60EF08F0F5
:1010AC00A15106E1A005D8B05EEF08F060EF08F0A2
:1010BC0066EF08F0000E376E010E366E6AEF08F020
:1010CC00A0C036F0A1C037F09EC038F09FC039F0F8
:1010DC003A503B10D8A475EF08F077EF08F07EEF8C
:1010EC0008F0A2A57CEF08F07EEF08F081EF08F085
:1010FC003806D8A03906000E456E1F0E446E000E41
:10110C00C56F05EF09F04406D8A04506A60E442489
:10111C00D96E000E4520DA6E3CC005F03DC006F0DD
:10112C003EC007F03FC008F040C009F041C00AF0D3
:10113C0042C00BF043C00CF00A0E0D6E000E0E6E8A
:10114C00000E0F6E000E106E000E116E000E126E61
:10115C00000E136E000E146E2AEC0BF005C02CF072
:10116C0006C02DF007C02EF008C02FF009C030F0DB
:10117C000AC031F00BC032F00CC033F02CC017F0A9
:10118C002EC018F0A8EC10F01750300FDF6E36069A
:10119C00D8A037063806D8A039063CC005F03DC0AB
:1011AC0006F03EC007F03FC008F040C009F041C057
:1011BC000AF042C00BF043C00CF00A0E0D6E000E8C
:1011CC000E6E000E0F6E000E106E000E116E000EE5
:1011DC00126E000E136E000E146E66EC0AF005C053
:1011EC003CF006C03DF007C03EF008C03FF009C01F
:1011FC0040F00AC041F00BC042F00CC043F045BEB9
:10120C0010EF09F0455008E14404D8A010EF09F0A4
:10121C0012EF09F043EF09F03C503D103E103F1027
:10122C004010411042104310D8A41FEF09F021EFD9
:10123C0009F089EF08F037BE2EEF09F0375006E1C0
:10124C003604D8B02CEF09F02EEF09F089EF08F036
:10125C0039BE39EF09F0395008E13804D8A039EF1C
:10126C0009F03BEF09F043EF09F00001A2B341EFA5
:10127C0009F043EF09F089EF08F03A503B10D8A47D
:10128C004AEF09F04CEF09F054EF09F00001A2A568
:10129C0052EF09F054EF09F072EF09F04406D8A0B0
:1012AC0045063A503B10D8A45EEF09F060EF09F008
:1012BC0066EF09F0000E356E2B0E346E6AEF09F0F6
:1012CC00000E356E2D0E346EA60E4424D96E000E13
:1012DC004520DA6E34C0DFFF22C017F023C018F0AF
:1012EC00A60E4424196E000E45201A6E38C01BF051
:1012FC0039C01CF042EC0CF017C022F018C023F0DF
:10130C00120048C0D9FF49C0DAFFDECFF6FFDDCFAF
:10131C00F7FFF86A0800F550250AD8A498EF09F0F1
:10132C009AEF09F049EF0AF048C0D9FF49C0DAFF3B
:10133C00DE2A000EDD22000E00019F6F000E9E6F54
:10134C009EC0A2F09FC0A3F0A069A16948C0D9FFBC
:10135C0049C0DAFFDECFF6FFDDCFF7FFF86A0800F1
:10136C00F550640AD8B4BDEF09F0BFEF09F0D2EF25
:10137C0009F048C0D9FF49C0DAFFDECFF6FFDDCF58
:10138C00F7FFF86A0800F550690AD8A4D0EF09F005
:10139C00D2EF09F012EF0AF048C0D9FF49C0DAFFCA
:1013AC00DE2A000EDD224AC0D9FF4BC0DAFFDFCFA8
:1013BC004CF0020EDE26DFCF4DF0000EDD224CC0CD
:1013CC00D9FF4DC0DAFFDECF4EF0DDCF4FF0000E6F
:1013DC004FBEFF0E506E516E526E536E546E556E64
:1013EC0046C022F047C023F04EC024F04FC025F079
:1013FC0050C026F051C027F052C028F053C029F03D
:10140C0054C02AF055C02BF016EC08F022C046F060
:10141C0023C047F065EF0AF048C0D9FF49C0DAFF96
:10142C00DECFF6FFDDCFF7FFF86A0800F550250A8E
:10143C00D8A423EF0AF025EF0AF03CEF0AF048C0DD
:10144C00D9FF49C0DAFFDE2A000EDD22000E086E3D
:10145C00250E076E46C009F047C00AF0B8EC0DF037
:10146C00000E476E010E466E65EF0AF048C0D9FFBC
:10147C0049C0DAFFDE2A000EDD22000E476E000E98
:10148C00466E65EF0AF048C0D9FF49C0DAFFDECFDF
:10149C00F6FFDDCFF7FFF86A0800F550076E086A13
:1014AC0046C009F047C00AF0B8EC0DF048C0D9FFAF
:1014BC0049C0DAFFDE2A000EDD2236EF0AF01200F8
:1014CC00000E166E14BE6FEF0AF06DEF0AF081EF8E
:1014DC000AF0141E131E121E111E101E0F1E0E1EBD
:1014EC000D6C000E0E220F2210221122122213223A
:1014FC001422010E166E0CBE88EF0AF086EF0AF06D
:10150C009AEF0AF00C1E0B1E0A1E091E081E071E5F
:10151C00061E056C000E06220722082209220A224A
:10152C000B220C22010E161A20EE17F0070EDE6AA3
:10153C00E806FDE20D500E100F10101011101210D5
:10154C0013101410D8B4ADEF0AF0AFEF0AF001EF9E
:10155C000BF0010E156EBDEF0AF0D8900D360E365D
:10156C000F3610361136123613361436152A14AEC1
:10157C00C2EF0AF0C4EF0AF0B3EF0AF0D8901736B6
:10158C00183619361A361B361C361D361E360D50BB
:10159C00055C0E5006580F50075810500858115043
:1015AC00095812500A5813500B5814500C58D8A004
:1015BC00E2EF0AF0E4EF0AF0F5EF0AF00D50055EE9
:1015CC000E50065A0F50075A1050085A1150095A0B
:1015DC0012500A5A13500B5A14500C5A1780D890A8
:1015EC00143213321232113210320F320E320D32DB
:1015FC00152EC4EF0AF01650D8B407EF0BF009EF14
:10160C000BF019EF0BF01E1E1D1E1C1E1B1E1A1EAE
:10161C00191E181E176C000E182219221A221B22D2
:10162C001C221D221E2217C005F018C006F019C07E
:10163C0007F01AC008F01BC009F01CC00AF01DC04E
:10164C000BF01EC00CF01200000E166E0CBE33EF29
:10165C000BF031EF0BF045EF0BF00C1E0B1E0A1EBE
:10166C00091E081E071E061E056C000E0622072208
:10167C00082209220A220B220C22010E166E14BE1D
:10168C004CEF0BF04AEF0BF05CEF0BF0141E131E3B
:10169C00121E111E101E0F1E0E1E0D6C000E0E22A1
:1016AC000F22102211221222132214220D500E107E
:1016BC000F1010101110121013101410D8B469EF71
:1016CC000BF06BEF0BF0B3EF0BF0010E156E79EF27
:1016DC000BF0D8900D360E360F36103611361236FA
:1016EC0013361436152A14AE7EEF0BF080EF0BF088
:1016FC006FEF0BF00D50055C0E5006580F5007584D
:10170C00105008581150095812500A5813500B58C1
:10171C0014500C58D8A095EF0BF097EF0BF0A7EFE7
:10172C000BF00D50055E0E50065A0F50075A105014
:10173C00085A1150095A12500A5A13500B5A145085
:10174C000C5AD890143213321232113210320F322A
:10175C000E320D32152E80EF0BF01650D8B4B9EFB7
:10176C000BF0BBEF0BF0CBEF0BF00C1E0B1E0A1E9D
:10177C00091E081E071E061E056C000E06220722F7
:10178C00082209220A220B220C2205C005F006C0F1
:10179C0006F007C007F008C008F009C009F00AC03D
:1017AC000AF00BC00BF00CC00CF012000CEC12F099
:1017BC00F28EF28C010E166E000E186E000E176E65
:1017CC00180E7BEC0FF0050E166E180E4AEC0EF090
:1017DC00010E166E000E186E000E176E180E7BECB6
:1017EC000FF0050E166E180E4AEC0EF016C0D9F05E
:1017FC0017C0DAF0D9C0D6F0DAC0D7F0040E000169
:10180C00D86FD890D733D633D82F07EF0CF0D651EA
:10181C00DB6FDC6BDAA915EF0CF017EF0CF025EF92
:10182C000CF0DB510008DB6FDC51D8A0E82A010872
:10183C00DC6F280ECE6F100ECF6F9FEC11F0210EC7
:10184C000001CE6F100ECF6FDBC0D0F0DCC0D1F03A
:10185C009FEC11F0060E0001D76F130ED66FAD0E74
:10186C00E82EFED7D62FFCD7D72FFAD700F000F0F2
:10187C00EEEF0BF058EF00F00001A2A148EF0CF0D6
:10188C004AEF0CF054EF0CF019C010F01AC011F024
:10189C0017C012F018C013F043EC10F01CBE59EF37
:1018AC000CF05BEF0CF061EF0CF01BC020F01CC0D7
:1018BC0021F065EF0CF0000E216E000E206E000E74
:1018CC001F6E000E1E6E77EF0CF0000E086E200ED1
:1018DC00076E17C009F018C00AF0B8EC0DF01E4ADC
:1018EC001F2A20501E5C1F50800A1D6E2150800A3A
:1018FC001D58D8A084EF0CF086EF0CF06BEF0CF0B9
:10190C000001A2B18CEF0CF08EEF0CF098EF0CF004
:10191C0019C010F01AC011F017C012F018C013F053
:10192C0043EC10F019C005F01AC006F0E8EC10F00A
:10193C0020500524176E21500620186E120021EC41
:10194C0012F00009D8B4ADEF0CF0AFEF0CF0EAEFE9
:10195C000CF0BDEF0CF094EC12F006EF0DF090ECE7
:10196C0012F006EF0DF088EC12F006EF0DF072C0DD
:10197C000EF073C00FF002D8CEEF0CF00500FA6E2B
:10198C0000016651FD6E6751FE6EFF6AFA5012003F
:10199C00106E116A1150000AD8B4D7EF0CF0B9EFE1
:1019AC000CF01050010AD8B4B9EF0CF0030AD8B4FB
:1019BC00B1EF0CF0010AD8B4B5EF0CF0070AD8B4AB
:1019CC00B9EF0CF0B9EF0CF0000183917DC0D9FF99
:1019DC007EC0DAFF7D4B7E2BDF5098EC12F00001BD
:1019EC007F07D8A080077F518011D8A400EF0DF09D
:1019FC0002EF0DF005EF0DF0060E06EF0DF0030EE5
:101A0C001200840E5724D96EDA6A000EDA22000E08
:101A1C00DF6EABA414EF0DF016EF0DF02AEF0DF006
:101A2C00840E5724D96EDA6A000EDA220001DF82A6
:101A3C0002D82AEF0DF00500FA6EE151FD6EE2516D
:101A4C00FE6EFF6AFA501200ABA22FEF0DF031EFD1
:101A5C000DF045EF0DF0840E5724D96EDA6A000EA6
:101A6C00DA220001DF8402D845EF0DF00500FA6E92
:101A7C00DF51FD6EE051FE6EFF6AFA501200840ECB
:101A8C005724D96EDA6A000EDA22DF50D8B451EF3F
:101A9C000DF053EF0DF062EF0DF002D860EF0DF08A
:101AAC000500FA6E0001DD51FD6EDE51FE6EFF6A1F
:101ABC00FA50120064EF0DF089EC11F01200ACEC4E
:101ACC0012F07DC0D9FF7EC0DAFFDF6E00017D4BC6
:101ADC007E2B7F07D8A080077F518011D8B479EF77
:101AEC000DF07BEF0DF080EF0DF09CEC12F0050E7D
:101AFC00B7EF0DF083878BEF0DF07CEC12F0B7EFA6
:101B0C000DF080EC12F0B7EF0DF06CC00EF06DC064
:101B1C000FF002D89BEF0DF00500FA6E6051FD6ED0
:101B2C006151FE6EFF6AFA501200106E116A11506C
:101B3C00000AD8B4A4EF0DF087EF0DF01050010A95
:101B4C00D8B487EF0DF0030AD8B483EF0DF0010A77
:101B5C00D8B483EF0DF0070AD8B487EF0DF087EFF8
:101B6C000DF0120009500A10D8B4BFEF0DF0C1EF00
:101B7C000DF0CAEF0DF009500A10D8A4C8EF0DF003
:101B8C00CAEF0DF0CFEF0DF0075055EC12F002EF4D
:101B9C000EF020EE04F00950D9260A50DA22DE505D
:101BAC00DE10D8B4DCEF0DF0DEEF0DF0F9EF0DF038
:101BBC0020EE04F00950D9260A50DA2210EE02F079
:101BCC000950E1260A50E222DE50E65CE650800A1B
:101BDC000F6EDE50800A0F58D8B0F7EF0DF0F9EF0A
:101BEC000DF002EF0EF020EE02F00950D9260A504B
:101BFC00DA22DE2A000EDD221200056E010E066EC0
:101C0C00000183B50CEF0EF00EEF0EF048EF0EF066
:101C1C0005C07CF08393838583910E0E816F010E3A
:101C2C007B6FF40E7A6F8387640E606F250E616F85
:101C3C00000E6C6F000E6D6F640E626F250E636F7D
:101C4C00000E6E6F000E6F6F640E646F250E656F65
:101C5C00000E706F000E716F640E666F250E676F4D
:101C6C00000E726F000E736F600E686F250E696F39
:101C7C00000E746F000E756FBEEC12F0C5EC11F017
:101C8C00000E066E065012001B6E000E1D6E000E2E
:101C9C001C6E1B5003EC0EF00009D8B458EF0EF07C
:101CAC005AEF0EF04FEF0EF0620E0A6E220E0B6E14
:101CBC001C0E0C6E000E0D6E00EC12F0160E056E66
:101CCC00000E066E000E086E010E076EB3EC11F0DE
:101CDC00000E0A6E000E0B6E000E0C6E000E0D6EDA
:101CEC00F4EC11F078EC12F073EC11F0E806D8B4C7
:101CFC0082EF0EF084EF0EF07AEF0EF01DC018F0AC
:101D0C001C50196E1850166E19C017F012000001F5
:101D1C0083879EEF0EF08CEC12F0CAEF0EF0AAEC5B
:101D2C0012F0030ECAEF0EF088EC12F0CAEF0EF0B0
:101D3C006CC00EF06DC00FF002D8AEEF0EF00500C7
:101D4C00FA6E6051FD6E6151FE6EFF6AFA50120020
:101D5C00106E116A1150000AD8B4B7EF0EF09AEF5A
:101D6C000EF01050010AD8B49AEF0EF0030AD8B452
:101D7C0091EF0EF0010AD8B491EF0EF0070AD8B427
:101D8C0095EF0EF09AEF0EF01200096E055006104A
:101D9C00D8B4D3EF0EF0D5EF0EF0EFEF0EF00950F4
:101DAC00020D600EF324D96E000EF420DA6E05C01D
:101DBC00DEFF06C0DDFF0950020D6C0EF324D96E58
:101DCC00000EF420DA6E07C0DEFF08C0DDFF07EF5F
:101DDC000FF00950020D600EF324D96E000EF420A2
:101DEC00DA6E640EDE6E250EDD6E0950020D6C0E81
:101DFC00F324D96E000EF420DA6E000EDE6E000EA7
:101E0C00DD6E12009D9A0E0E056E1A0E066E64ECB7
:101E1C0012F09D980E0E056E210E066E5FEC12F000
:101E2C00080EB86E900EAB6E240EAC6ECF0EAF6E6D
:101E3C00000EB06E800E056E250E066E6EEC12F066
:101E4C00440E056E250E066E69EC12F04A0E056EF8
:101E5C00250E066E73EC12F0000E0001A46F000E3E
:101E6C00596E000E586E080EE76F000E576E000E7E
:101E7C00566E000EA56F9D8A1200BEEC12F000018A
:101E8C0083A14BEF0FF04DEF0FF05AEF0FF021EC59
:101E9C0012F00009D8B455EF0FF057EF0FF05AEFCE
:101EAC000FF00F0E0001816F00018151020D010E28
:101EBC00F324F66E100EF420F76EF86A000EF8227A
:101ECC000900F5CF12F00900F5CF13F002D878EF26
:101EDC000FF00500FA6E1250FD6E1350FE6EFF6A85
:101EEC00FA5012000001816F1200196E195003ECA8
:101EFC000EF00009D8B485EF0FF087EF0FF07CEFF0
:101F0C000FF0BA0E0A6E220E0B6E170E0C6E000E30
:101F1C000D6E00EC12F0160E056E000E066E000E25
:101F2C00086E010E076EB3EC11F0000E0A6E000E77
:101F3C000B6E000E0C6E000E0D6EF4EC11F078ECC6
:101F4C0012F073EC11F0E806D8B4AFEF0FF0B1EF6C
:101F5C000FF0A7EF0FF0120000018391020E826FB9
:101F6C00C0EF0FF08CEC12F0E4EF0FF088EC12F0F5
:101F7C00E4EF0FF070C00EF071C00FF002D8D0EF8C
:101F8C000FF00500FA6E6451FD6E6551FE6EFF6A2E
:101F9C00FA501200106E116A1150000AD8B4D9EF21
:101FAC000FF0BCEF0FF01050020AD8B4B8EF0FF0DE
:101FBC00010AD8B4B8EF0FF0BCEF0FF01200C8C094
:101FCC00CCF0C9C0CDF0000E00019D6F000E9C6FCF
:101FDC0003EF10F0C6C046F0C7C047F0CC0E486EF9
:101FEC00000E496ECAC04AF0CBC04BF087EC09F02A
:101FFC00465000019C2747509D23CCC0F6FFCDC016
:10200C00F7FFF86A0800F5500009D8A410EF10F09B
:10201C0012EF10F0F0EF0FF09CC0C6F09DC0C7F0AF
:10202C001200056E0001E751D8B41FEF10F021EF3C
:10203C0010F018EF10F09DB826EF10F028EF10F00C
:10204C002CEF10F005C0ADFF41EF10F09D98940EF1
:10205C005924D96EDA6A000EDA2205C0DFFF592A3C
:10206C00070E59643CEF10F03EEF10F040EF10F00B
:10207C00000E596EE7079D881200000E166E000EBA
:10208C00156E54EF10F014C007F0086A12C009F076
:10209C0013C00AF0B8EC0DF0154A162A155010248E
:1020AC00D96E16501120DA6EDF50146E1450D8A46D
:1020BC0062EF10F064EF10F049EF10F01200146EA4
:1020CC00010E156E000183B36EEF10F070EF10F07F
:1020DC0085EF10F08383000E156E1450D8B479EF91
:1020EC0010F07BEF10F07FEF10F0010E816F81EF9D
:1020FC0010F0020E816FB8EC12F0E5EC11F01550F7
:10210C001200080E0001E7618EEF10F090EF10F056
:10211C00A6EF10F0940E5824D96EDA6A000EDA226B
:10212C00DF50AD6E582A070E58649FEF10F0A1EFE8
:10213C0010F0A3EF10F0000E586EE72BA7EF10F085
:10214C009D98120018BEB5EF10F0185006E1170458
:10215C00D8B0B3EF10F0B5EF10F0C3EF10F017C01C
:10216C0019F018C01AF0191E1A1E194A1A2A19C089
:10217C0017F01AC018F0C7EF10F017C017F018C0FE
:10218C0018F0120020EE02F00E50D9260F50DA2271
:10219C00DECF05F0DDCF06F00EC0D9FF0FC0DAFFA1
:1021AC00DECF07F0DDCF08F0B3EC11F0000E0A6EB5
:1021BC00000E0B6E000E0C6E000E0D6E00EC12F08D
:1021CC00020E120005C007F006C008F0F0EF10F088
:1021DC00054A062A05C0D9FF06C0DAFFDF50D8A48D
:1021EC00FAEF10F0FCEF10F0EEEF10F00750055C7A
:1021FC00056E08500658066E1200000E8D6E000E0D
:10220C008C6E000E896E000E8A6E000E8B6E070EA1
:10221C00966E92689368BF0E946E95687E681F0EDA
:10222C007F6E000E7C6EF18E12000EC005F00FC09A
:10223C0006F0000E086E010E076EB3EC11F0000EE6
:10224C000A6E000E0B6E000E0C6E000E0D6E00EC86
:10225C0012F0040E12000EC005F00FC006F0000EB6
:10226C00086E020E076EB3EC11F0000E0A6E000E33
:10227C000B6E000E0C6E000E0D6E00EC12F0020ECA
:10228C0012000EC005F00FC006F0000E086E010E15
:10229C00076EB3EC11F0000E0A6E000E0B6E000E02
:1022AC000C6E000E0D6E00EC12F0020E12000EC041
:1022BC0005F00FC006F0000E086E020E076EB3ECB0
:1022CC0011F0000E0A6E000E0B6E000E0C6E000E5E
:1022DC000D6E00EC12F0040E1200010E056E0001E2
:1022EC0083B37BEF11F07DEF11F087EF11F0839545
:1022FC007C69BEEC12F0BAEC12F0BCEC12F082C0AD
:10230C0005F0055012008C0E5724D96EDA6A000EB7
:10231C00DA22AECFDFFF572A070E576498EF11F081
:10232C009AEF11F09CEF11F0000E576E0001A52BE7
:10233C001200D00E0001D46F000ED56F000EC66FC8
:10234C00000EC76FCEC0C8F0CFC0C9F0D40ECA6F94
:10235C00000ECB6FE5EC0FF01200000183A7B9EF74
:10236C0011F0BBEF11F0C4EF11F005C07DF006C009
:10237C007EF007C07FF008C080F083971200C6BAC9
:10238C00CAEF11F0CCEF11F0D5EF11F0000EC76EC3
:10239C00080EC66E000EC56E130EC86EC68A1200ED
:1023AC0000EE60F0660EEE6AE806FDE1596A586AC6
:1023BC00576A566A5A905A920001DCEF0BF0EBEF19
:1023CC0011F02BEC12F043EC0FF0000183B3F1EFA2
:1023DC0011F0F3EF11F0E7EF11F012000AC005F065
:1023EC000BC006F00CC007F00DC008F0020ECBECD1
:1023FC000EF012000AC005F00BC006F00CC007F07E
:10240C000DC008F0000ECBEC0EF01200A8EC12F090
:10241C0017EC12F003EC11F05AEC12F008EC0FF080
:10242C001200000EC76E080EC66E000EC56E130E9F
:10243C00C86EC69A1200C5BC26EF12F029EF12F036
:10244C00010E2AEF12F0000E12009EA630EF12F0D1
:10245C0032EF12F02BEF12F01200000183817C514D
:10246C007C2598EC12F0030E120000018381D880B9
:10247C007C3598EC12F0050E120000018393000ECF
:10248C00826F0E0E120000018391AEEC12F0040E5E
:10249C00120000018393000E826F0E0E1200066E66
:1024AC00065017EC10F01200600ED36E000E9B6EEF
:1024BC00120005C0E5F006C0E6F0120005C0E3F01E
:1024CC0006C0E4F0120005C0DFF006C0E0F0120018
:1024DC0005C0E1F006C0E2F0120005C0DDF006C058
:1024EC00DEF01200000E65EC10F012009FEC12F002
:1024FC00090E12009FEC12F00A0E12009CEC12F066
:10250C00050E1200B4EC12F0000E1200B6EC12F034
:10251C00010E1200B6EC12F0020E1200B6EC12F024
:10252C00010E1200056E05C0C9FF1200C59AC588C0
:10253C001200C58AC5881200AB98AB88120089ECD2
:10254C0011F01200D09E12009E861200C95012008B
:10255C00C5861200050E1200010E1200C584120071
:10256C00C5821200C58012009D961200C69A1200F8
:06257C009E961200120001
:020000040020DA
:08000000FFFFFFFFFFFFFFFF00
:020000040030CA
:0E000000FF081F1EFF0B81FF0FC00FE00F4017
:00000001FF
